S01200004942505F536F74656C322E737265639F
S11300000C9434000C9451000C9451000C94510045
S11300100C9451000C9451000C9451000C94510018
S11300200C9451000C9451000C9451000C94510008
S11300300C9451000C9451000C9451000C945100F8
S11300400C9451000C9451000C9451000C945100E8
S11300500C9451000C9451000C9451000C945100D8
S11300600C9451000C94510011241FBECFEFD8E022
S1130070DEBFCDBF11E0A0E0B1E0E8E9F5E002C0E9
S113008005900D92A634B107D9F721E0A6E4B1E0BA
S113009001C01D92A734B207E1F70E94F0010C944D
S11300A0CA020C9400008FEF87B91AB815B818B8B3
S11300B01BB884B1826084B98AB1877F8AB98BB155
S11300C088608BB9089584B1877F84B984B18F7DAA
S11300D084B984B18B7F84B984B1806184B980E4AC
S11300E08CBD0895009741F4109280001092810015
S11300F085B18D7F85B90895A0E0B0E0880F991F80
S1130100AA1FBB1F880F991FAA1FBB1F9C01AD010B
S1130110220F331F441F551F220F331F441F551F27
S113012060E074E284EF90E00E94A802215031095B
S11301303093870020938600369527953093890065
S11301402093880082E8809380008AE18093810074
S113015008958091C0008823E4F78091C6009FEB46
S1130160980F963010F4875308959FE9980F9630AE
S113017010F48755089580538A3008F080E008957C
S1130180809527E030E019C0482F50E0022E02C0CD
S1130190559547950A94E2F740FF04C098B19160E1
S11301A098B903C098B19E7F98B998B1926098B9F4
S11301B098B19D7F98B92150310933232CF788B128
S11301C0846088B988B18B7F88B988B18E7F88B9FB
S11301D0089580E18093C4001092C50088E1809363
S11301E0C10086E08093C2000895E82FF0E0EE0F8E
S11301F0FF1FEA5DFE4F8081809346010E94C0008C
S11302008091C00085FFFCCF8EE28093C6000895E4
S1130210E82FF0E03197EE0FFF1FEA5EFE4F80817A
S11302208095909146018923809346010E94C000E5
S11302308091C00085FFFCCF8EE28093C6000895B4
S1130240E82FF0E03197EE0FFF1FEA5EFE4F80814A
S113025090914601892B809346010E94C0008091B1
S1130260C00085FFFCCF8EE28093C60008950E94F3
S113027072002FEF85EA9EE0215080409040E1F724
S113028000C0000080E090E00E9472008091C000F5
S113029085FFFCCF8EE28093C600089583E090E052
S11302A00E9472002FE787E298E02150804090403E
S11302B0E1F700C0000080E090E00E94720083E05B
S11302C090E00E9472002FE787E298E0215080407E
S11302D09040E1F700C0000080E090E00E947200CE
S11302E02FE787E298E0215080409040E1F700C07A
S11302F0000083E090E00E9472002FE787E298E01C
S1130300215080409040E1F700C0000080E090E080
S11303100E94720081E090E00E9472002FE787E261
S113032098E0215080409040E1F700C0000080E058
S113033090E00E94720083E090E00E9472002FEF30
S11303408EE490E1215080409040E1F700C000002D
S113035080E090E00E94720085E090E00E947200CC
S11303602FEF8EE490E1215080409040E1F700C0EF
S1130370000080E090E00E9472002FEF8EE490E194
S1130380215080409040E1F700C000000895E82F1C
S1130390F0E0EE0FFF1FEE5FFE4F808191810E941F
S11303A072002FEF85EA9EE0215080409040E1F7F3
S11303B000C0000080E090E00E9472008091C000C4
S11303C085FFFCCF8EE28093C60008950E94C00092
S11303D08091C00085FFFCCF8EE28093C600089513
S11303E00E94E9000E9453000E9463008091C000B3
S11303F088230CF064C08091C600843429F40E94E0
S1130400A9000E94F5005BC0853529F40E94A9006B
S11304100E94080154C0813429F40E94A9000E945A
S113042020014DC08634C1F40E94A900D82F0E9437
S1130430A900C82F0E94A9002D2F30E0522F442775
S113044090E1C99F90011124242B352BA901482B3D
S1130450CA010E94370133C08E3429F40E94A900D6
S11304600E94C7012CC0823479F40E94A900C82FCD
S11304700E94A90050E1C59F90011124822B809312
S113048046010E94E6011BC08D3491F48091C000A6
S11304908823E4F78091C600813389F40E944E01D9
S11304A08091C00085FFFCCF8EE28093C60007C018
S11304B08091C00085FFFCCF8FE38093C6000DB40C
S11304C007FE94CF8EB5843439F40DB407FEFDCF06
S11304D08EB50E94F5008ACF853539F40DB407FE38
S11304E0FDCF8EB50E94080181CF813439F40DB45B
S11304F007FEFDCF8EB50E94200178CF8E3439F4EB
S11305000DB407FEFDCF8EB50E94C7016FCF8234B4
S113051049F40DB407FEFDCF8EB5809346010E94C9
S1130520E60164CF823509F061CF4B9B03C08FEFA6
S11305308EBD01C01EBC8091C00085FFFCCF80E051
S113054091E08093C6000DB407FEFDCF8EB54ECF6B
S1130550A1E21A2EAA1BBB1BFD010DC0AA1FBB1FC3
S1130560EE1FFF1FA217B307E407F50720F0A21B35
S1130570B30BE40BF50B661F771F881F991F1A94A2
S113058069F760957095809590959B01AC01BD01CC
S10B0590CF010895F894FFCF98
S11305982E000000060126014A015D018801B80108
S11305A8EE010B024B0201000200040008001000D7
S11305B8200040008000BE00A0003B00B900A50058
S11305C89D009F00B000BF00BD00B7008F000B0066
S10905D8AB001F00170038
S9030000FC
