:100000000C9434000C943E000C943E000C943E0082
:100010000C943E000C943E000C943E000C943E0068
:100020000C943E000C943E000C943E000C943E0058
:100030000C943E000C943E000C943E000C943E0048
:100040000C943E000C943E000C943E000C943E0038
:100050000C943E000C943E000C943E000C943E0028
:100060000C943E000C943E0011241FBECFEFD8E04C
:10007000DEBFCDBF0E9480000C94CD000C94000028
:100080008091C0008823E4F78091C6009FEB980F11
:10009000963010F4875308959FE9980F963010F426
:1000A0008755089580538A3008F080E00895809540
:1000B00027E030E019C0482F50E0022E02C05595CD
:1000C00047950A94E2F740FF04C098B1916098B94F
:1000D00003C098B19E7F98B998B1926098B998B1D1
:1000E0009D7F98B92150310933232CF788B1846062
:1000F00088B988B18B7F88B988B18E7F88B9089517
:1001000080E18093C4001092C50088E18093C10013
:1001100086E08093C2008FEF84B987B91AB815B80A
:1001200018B81BB88091C0008823E4F78091C600FE
:10013000823499F40E944000C82F0E94400040E1A0
:10014000C49F90011124822B85B98091C00085FF46
:10015000FCCF8EE28093C600E5CF8134B1F40E94DB
:100160004000C82F0E94400050E1C59F900111241B
:10017000A901482BCA010E9457008091C00085FF49
:10018000FCCF81E28093C600CDCF8091C00085FF77
:0E019000FCCF8FE38093C600C5CFF894FFCF5D
:00000001FF
