S00F000053657269616C322E7372656383
S11300000C9434000C9451000C9451000C94510045
S11300100C9451000C9451000C9451000C94510018
S11300200C9451000C9451000C9451000C94510008
S11300300C9451000C9451000C9451000C945100F8
S11300400C9451000C9451000C9451000C945100E8
S11300500C9451000C9451000C9451000C945100D8
S11300600C9451000C94510011241FBECFEFD8E022
S1130070DEBFCDBF11E0A0E0B1E0E8EEF4E002C0E5
S113008005900D92A634B107D9F721E0A6E4B1E0BA
S113009001C01D92A734B207E1F70E9408020C9434
S11300A072020C9400008FEF84B987B91AB815B89E
S11300B018B81BB884B1826084B90895009741F4DC
S11300C0109280001092810085B18D7F85B90895CA
S11300D0A0E0B0E0880F991FAA1FBB1F880F991FCB
S11300E0AA1FBB1F9C01AD01220F331F441F551FC4
S11300F0220F331F441F551F60E074E284EF90E029
S11301000E945002215031093093870020938600C9
S113011036952795309389002093880082E8809350
S113012080008AE18093810008958091C000882333
S1130130E4F78091C6009FEB980F963010F4875334
S113014008959FE9980F963010F4875508958053C9
S11301508A3008F080E00895809527E030E019C0E7
S1130160482F50E0022E02C0559547950A94E2F7B5
S113017040FF04C098B1916098B903C098B19E7FC4
S113018098B998B1926098B998B19D7F98B9215067
S1130190310933232CF788B1846088B988B18B7F07
S11301A088B988B18E7F88B9089580E18093C400AE
S11301B01092C50088E18093C10086E08093C2005C
S11301C008950E949500E82FF0E0EE0FFF1FEA5D0E
S11301D0FE4F8081809346010E94AC008091C00054
S11301E085FFFCCF81E28093C6000895CF930E94DF
S11301F09500C82F0E94950090E1C99F9001112499
S1130200822B85B98091C00085FFFCCF8EE280935C
S1130210C600CF9108950E949500E82FF0E0319731
S1130220EE0FFF1FEA5EFE4F80818095909146019C
S11302308923809346010E94AC008091C00085FF11
S1130240FCCF81E28093C60008950E949500E82FB8
S1130250F0E03197EE0FFF1FEA5EFE4F8081909130
S11302604601892B809346010E94AC008091C00016
S113027085FFFCCF8CE78093C6000895CF93DF936E
S11302800E949500D82F0E949500C82F0E949500C7
S11302902D2F30E0322F222790E1C99FA001112495
S11302A0242B352BA901482BCA010E945E005FEF65
S11302B085EA9EE0515080409040E1F700C0000084
S11302C080E090E00E945E008091C00085FFFCCF3A
S11302D08CE78093C600DF91CF91089583E090E08E
S11302E00E945E002FE787E298E021508040904012
S11302F0E1F700C0000080E090E00E945E0083E02F
S113030090E00E945E002FE787E298E02150804051
S11303109040E1F700C0000080E090E00E945E00A1
S11303202FE787E298E0215080409040E1F700C039
S1130330000083E090E00E945E002FE787E298E0EF
S1130340215080409040E1F700C0000080E090E040
S11303500E945E0081E090E00E945E002FE787E249
S113036098E0215080409040E1F700C0000080E018
S113037090E00E945E0083E090E00E945E002FEF18
S11303808EE490E1215080409040E1F700C00000ED
S113039080E090E00E945E0085E090E00E945E00B4
S11303A02FEF8EE490E1215080409040E1F700C0AF
S11303B0000080E090E00E945E002FEF8EE490E168
S11303C0215080409040E1F700C0000008950E9451
S11303D09500E82FF0E0EE0FFF1FE050FF4F808103
S11303E091810E945E002FEF85EA9EE021508040BB
S11303F09040E1F700C0000080E090E00E945E00C1
S11304008091C00085FFFCCF8CE78093C6000895DF
S11304100E94D5000E9453008091C0008823E4F715
S11304208091C0008823E4F78091C600823419F4D7
S11304300E94F600F1CF843419F40E94E100ECCF5D
S1130440833519F40E940B01E7CF883419F40E9414
S11304502501E2CF863419F40E943E01DDCF8E34AB
S113046019F40E94E701D8CF8D3491F48091C00033
S11304708823E4F78091C600813311F40E946E0151
S11304808091C00085FFFCCF8CE78093C600C4CF69
S11304908091C00085FFFCCF8FE38093C600BCCF62
S11304A0A1E21A2EAA1BBB1BFD010DC0AA1FBB1F74
S11304B0EE1FFF1FA217B307E407F50720F0A21BE6
S11304C0B30BE40BF50B661F771F881F991F1A9453
S11304D069F760957095809590959B01AC01BD017D
S10B04E0CF010895F894FFCF49
S11304E80000060126014A015D018801B801EE01F8
S11304F80B024B0200000100020004000800100077
S1130508200040008000BE00A0003B00B900A50008
S11305189D009F00B000BF00BD00B7008F000B0016
S1090528AB001F001700E8
S9030000FC
