:100000000C9434000C9451000C9451000C94510049
:100010000C9451000C9451000C9451000C9451001C
:100020000C9451000C9451000C9451000C9451000C
:100030000C9451000C9451000C9451000C945100FC
:100040000C9451000C9451000C9451000C945100EC
:100050000C9451000C9451000C9451000C945100DC
:100060000C9451000C94510011241FBECFEFD8E026
:10007000DEBFCDBF11E0A0E0B1E0E0ECF4E002C0F3
:1000800005900D92A634B107D9F721E0A6E4B1E0BE
:1000900001C01D92A834B207E1F70E945A010C94E6
:1000A0005E020C9400008091C0008823E4F78091E8
:1000B000C6009FEB980F963010F4875308959FE980
:1000C000980F963010F48755089580538A3008F0C1
:1000D00080E0089580E18093C4001092C50088E11B
:1000E0008093C10086E08093C20008958FEF84B9A9
:1000F00087B91AB815B818B81BB884B1826084B92A
:100100000895009741F4109280001092810085B10B
:100110008D7F85B90895A0E0B0E0880F991FAA1FD0
:10012000BB1F880F991FAA1FBB1F9C01AD01220F87
:10013000331F441F551F220F331F441F551F60E0FC
:1001400074E284EF90E00E943C0221503109309328
:100150008700209386003695279530938900209359
:10016000880082E8809380008AE18093810008956E
:1001700083E090E00E9481002FE787E298E0215021
:1001800080409040E1F700C0000080E090E00E94D5
:10019000810083E090E00E9481002FE787E298E0F1
:1001A000215080409040E1F700C0000080E090E0E6
:1001B0000E9481002FE787E298E021508040904024
:1001C000E1F700C0000083E090E00E9481002FE78B
:1001D00087E298E0215080409040E1F700C00000A5
:1001E00080E090E00E94810081E090E00E94810028
:1001F0002FE787E298E0215080409040E1F700C06F
:10020000000080E090E00E94810083E090E00E9486
:1002100081002FEF8EE490E1215080409040E1F783
:1002200000C0000080E090E00E94810085E090E046
:100230000E9481002FEF8EE490E121508040904099
:10024000E1F700C0000080E090E00E9481002FEF05
:100250008EE490E1215080409040E1F700C0000022
:100260000895809527E030E019C0482F50E0022E15
:1002700002C0559547950A94E2F740FF04C098B133
:10028000916098B903C098B19E7F98B998B1926077
:1002900098B998B19D7F98B92150310933232CF733
:1002A00088B1846088B988B18B7F88B988B18E7F26
:1002B00088B908950E946A000E9476008091C0006B
:1002C0008823E4F78091C0008823E4F78091C6007A
:1002D000823499F40E945300C82F0E94530040E1D9
:1002E000C49F90011124822B85B98091C00085FFA5
:1002F000FCCF8EE28093C600E1CF8434B1F40E943B
:100300005300E82FF0E0EE0FFF1FE05FFE4F80810B
:100310008093470190E00E9431018091C00085FFE9
:10032000FCCF81E28093C600C9CF8335E1F40E94FF
:100330005300E82FF0E03197EE0FFF1FE050FF4F22
:100340008081982F90958091470189238093470160
:1003500090E00E9431018091C00085FFFCCF81E2D6
:100360008093C600ABCF8834D1F40E945300E82FAD
:10037000F0E03197EE0FFF1FE050FF4F808190912A
:100380004701892B8093470190E00E9431018091C1
:10039000C00085FFFCCF8CE78093C6008FCF8035EF
:1003A00061F50E945300D82F0E945300C82F0E946D
:1003B00053002D2F30E0522F442790E1C99F900128
:1003C0001124242B352BA901482BCA010E9481003E
:1003D0005FEF85EA9EE0515080409040E1F700C019
:1003E000000080E090E00E9481008091C00085FFC5
:1003F000FCCF8CE78093C60061CF8F3409F50E9453
:100400005300E82FF0E0EE0FFF1FE05DFE4F80810C
:1004100091810E9481002FEF45EA5EE0215040402B
:100420005040E1F700C0000080E090E00E948100B1
:100430008091C00085FFFCCF8CE78093C6003ECF43
:100440008D3491F48091C0008823E4F78091C60038
:10045000813311F40E94B8008091C00085FFFCCF69
:100460008CE78093C6002ACF8091C00085FFFCCF27
:100470008FE38093C60022CFA1E21A2EAA1BBB1BDA
:10048000FD010DC0AA1FBB1FEE1FFF1FA217B30760
:10049000E407F50720F0A21BB30BE40BF50B661F76
:1004A000771F881F991F1A9469F76095709580953A
:1004B00090959B01AC01BD01CF010895F894FFCF49
:1004C000010002000400080010002000400080002D
:1004D000BE00A0003B00B900A5009D009F00B00039
:1004E000BF00BD00B7008F000B00AB001F0017005E
:1004F0000000060126014A015D018801B801EE01F4
:060500000B024B0200009B
:00000001FF
