:100000000C9434000C9451000C9451000C94510049
:100010000C9451000C9451000C9451000C9451001C
:100020000C9451000C9451000C9451000C9451000C
:100030000C9451000C9451000C9451000C945100FC
:100040000C9451000C9451000C9451000C945100EC
:100050000C9451000C9451000C9451000C945100DC
:100060000C9451000C94510011241FBECFEFD8E026
:10007000DEBFCDBF11E0A0E0B1E0EEE1F5E002C0EF
:1000800005900D92A634B107D9F721E0A6E4B1E0BE
:1000900001C01D92A734B207E1F70E94EA010C9457
:1000A0008D020C9400008FEF87B91AB815B818B8F4
:1000B0001BB884B1826084B9089584B1877F84B904
:1000C00084B18F7D84B984B18B7F84B984B1806120
:1000D00084B980E48CBD0895009741F410928000AB
:1000E0001092810085B18D7F85B90895A0E0B0E0C0
:1000F000880F991FAA1FBB1F880F991FAA1FBB1F1C
:100100009C01AD01220F331F441F551F220F331FC7
:10011000441F551F60E074E284EF90E00E946B0280
:10012000215031093093870020938600369527951A
:10013000309389002093880082E8809380008AE1D0
:100140008093810008958091C0008823E4F7809116
:10015000C6009FEB980F963010F4875308959FE9DF
:10016000980F963010F48755089580538A3008F020
:1001700080E00895809527E030E019C0482F50E0D6
:10018000022E02C0559547950A94E2F740FF04C03D
:1001900098B1916098B903C098B19E7F98B998B111
:1001A000926098B998B19D7F98B921503109332355
:1001B0002CF788B1846088B988B18B7F88B988B101
:1001C0008E7F88B9089580E18093C4001092C500A5
:1001D00088E18093C10086E08093C2000895E82FF3
:1001E000F0E0EE0FFF1FEA5DFE4F80818093460135
:1001F0000E94BA008091C00085FFFCCF81E280930D
:10020000C6000895E82FF0E03197EE0FFF1FEA5E79
:10021000FE4F80818095909146018923809346010D
:100220000E94BA008091C00085FFFCCF81E28093DC
:10023000C6000895E82FF0E03197EE0FFF1FEA5E49
:10024000FE4F808190914601892B809346010E9448
:10025000BA008091C00085FFFCCF8CE78093C60078
:1002600008950E946C002FEF85EA9EE021508040A7
:100270009040E1F700C0000080E090E00E946C0038
:100280008091C00085FFFCCF8CE78093C600089565
:1002900083E090E00E946C002FE787E298E0215015
:1002A00080409040E1F700C0000080E090E00E94B4
:1002B0006C0083E090E00E946C002FE787E298E0FA
:1002C000215080409040E1F700C0000080E090E0C5
:1002D0000E946C002FE787E298E021508040904018
:1002E000E1F700C0000083E090E00E946C002FE77F
:1002F00087E298E0215080409040E1F700C0000084
:1003000080E090E00E946C0081E090E00E946C0030
:100310002FE787E298E0215080409040E1F700C04D
:10032000000080E090E00E946C0083E090E00E947A
:100330006C002FEF8EE490E1215080409040E1F777
:1003400000C0000080E090E00E946C0085E090E03A
:100350000E946C002FEF8EE490E12150804090408D
:10036000E1F700C0000080E090E00E946C002FEFF9
:100370008EE490E1215080409040E1F700C0000001
:100380000895E82FF0E0EE0FFF1FE050FF4F80814F
:1003900091810E946C002FEF85EA9EE02150804001
:1003A0009040E1F700C0000080E090E00E946C0007
:1003B0008091C00085FFFCCF8CE78093C600089534
:1003C0000E94BA008091C00085FFFCCF8DE580932C
:1003D000C60008950E94E3000E9453000E945D0041
:1003E0008091C00088230CF068C08091C0008823F1
:1003F000E4F78091C600843429F40E94A3000E948F
:10040000EF005BC0853529F40E94A3000E94020121
:1004100054C0813429F40E94A3000E941A014DC0E7
:100420008634C1F40E94A300D82F0E94A300C82FD5
:100430000E94A3002D2F30E0522F442790E1C99F46
:1004400090011124242B352BA901482BCA010E94AD
:10045000310133C08E3429F40E94A3000E94C101EF
:100460002CC0823479F40E94A300C82F0E94A300FC
:1004700050E1C59F90011124822B809346010E9478
:10048000E0011BC08D3491F48091C0008823E4F713
:100490008091C600813311F40E9448018091C00010
:1004A00085FFFCCF8CE78093C60007C08091C00019
:1004B00085FFFCCF8FE38093C6000DB407FE90CF7D
:1004C0008EB5843409F08CCF0DB407FEFDCF8EB508
:1004D0000E94EF0085CFA1E21A2EAA1BBB1BFD01D3
:1004E0000DC0AA1FBB1FEE1FFF1FA217B307E40713
:1004F000F50720F0A21BB30BE40BF50B661F771F6B
:10050000881F991F1A9469F760957095809590954A
:0E0510009B01AC01BD01CF010895F894FFCF0F
:10051E000000060126014A015D018801B801EE01C5
:10052E000B024B0200000100020004000800100044
:10053E00200040008000BE00A0003B00B900A500D6
:10054E009D009F00B000BF00BD00B7008F000B00E4
:06055E00AB001F001700B6
:00000001FF
