:100000000C9434000C9451000C9451000C94510049
:100010000C9451000C9451000C9451000C9451001C
:100020000C9451000C9451000C9451000C9451000C
:100030000C9451000C9451000C9451000C945100FC
:100040000C9451000C945E000C9451000C945100DF
:100050000C9451000C9451000C9451000C945100DC
:100060000C9451000C94510011241FBECFEFD8E026
:10007000DEBFCDBF11E0A0E0B1E0EEE6F5E002C0EA
:1000800005900D92A634B107D9F721E0A6E4B1E0BE
:1000900001C01D92AB34B207E1F70E940F020C942D
:1000A000B5020C9400008FEF84B987B91AB815B85F
:1000B00018B81BB884B1826084B908951F920F925A
:1000C0000FB60F9211248F939F939EB58091470195
:1000D000811106C09093490181E0809347010AC0D5
:1000E00080914701813031F490934801109247018B
:1000F000809346019F918F910F900FBE0F901F909C
:10010000189584B1877F84B984B18F7D84B984B117
:100110008B7F84B984B1806184B980EC8CBD789484
:100120000895009741F4109280001092810085B1EB
:100130008D7F85B90895A0E0B0E0880F991FAA1FB0
:10014000BB1F880F991FAA1FBB1F9C01AD01220F67
:10015000331F441F551F220F331F441F551F60E0DC
:1001600074E284EF90E00E949302215031093093B1
:100170008700209386003695279530938900209339
:10018000880082E8809380008AE18093810008954E
:100190008091C0008823E4F78091C6009FEB980F00
:1001A000963010F4875308959FE9980F963010F415
:1001B0008755089580538A3008F080E0089580952F
:1001C00027E030E019C0482F50E0022E02C05595BC
:1001D00047950A94E2F740FF04C098B1916098B93E
:1001E00003C098B19E7F98B998B1926098B998B1C0
:1001F0009D7F98B92150310933232CF788B1846051
:1002000088B988B18B7F88B988B18E7F88B9089505
:1002100080E18093C4001092C50088E18093C10002
:1002200086E08093C2000895E82FF0E0EE0FFF1FF4
:10023000EA5DFE4F808180934A010E94DF00809139
:10024000C00085FFFCCF81E28093C6000895E82FAF
:10025000F0E03197EE0FFF1FEA5EFE4F8081809540
:1002600090914A01892380934A010E94DF00809186
:10027000C00085FFFCCF81E28093C6000895E82F7F
:10028000F0E03197EE0FFF1FEA5EFE4F8081909104
:100290004A01892B80934A010E94DF008091C000AF
:1002A00085FFFCCF8CE78093C60008950E949100E3
:1002B0002FEF85EA9EE0215080409040E1F700C09A
:1002C000000080E090E00E9491008091C00085FFD6
:1002D000FCCF8CE78093C600089583E090E00E94F5
:1002E00091002FE787E298E0215080409040E1F7AD
:1002F00000C0000080E090E00E94910083E090E068
:100300000E9491002FE787E298E0215080409040C2
:10031000E1F700C0000080E090E00E9491002FE72C
:1003200087E298E0215080409040E1F700C0000053
:1003300083E090E00E9491002FE787E298E021504F
:1003400080409040E1F700C0000080E090E00E9413
:10035000910081E090E00E9491002FE787E298E011
:10036000215080409040E1F700C0000080E090E024
:100370000E94910083E090E00E9491002FEF8EE4B4
:1003800090E1215080409040E1F700C0000080E003
:1003900090E00E94910085E090E00E9491002FEF94
:1003A0008EE490E1215080409040E1F700C00000D1
:1003B00080E090E00E9491002FEF8EE490E12150C8
:1003C00080409040E1F700C000000895E82FF0E081
:1003D000EE0FFF1FE050FF4F808191810E9491003E
:1003E0002FEF85EA9EE0215080409040E1F700C069
:1003F000000080E090E00E9491008091C00085FFA5
:10040000FCCF8CE78093C60008950E94DF008091A6
:10041000C00085FFFCCF8DE58093C60008950E9443
:1004200008010E9453000E9481008091C00088232F
:100430000CF068C08091C0008823E4F78091C6006A
:10044000843429F40E94C8000E9414015BC08535E1
:1004500029F40E94C8000E94270154C0813429F465
:100460000E94C8000E943F014DC08634C1F40E9422
:10047000C800D82F0E94C800C82F0E94C8002D2F86
:1004800030E0522F442790E1C99F90011124242B82
:10049000352BA901482BCA010E94560133C08E3466
:1004A00029F40E94C8000E94E6012CC0823479F42D
:1004B0000E94C800C82F0E94C80050E1C59F90014B
:1004C0001124822B80934A010E9405021BC08D34A7
:1004D00091F48091C0008823E4F78091C6008133B5
:1004E00011F40E946D018091C00085FFFCCF8CE764
:1004F0008093C60007C08091C00085FFFCCF8FE3CA
:100500008093C60080914601882309F48ECF109213
:10051000460180914901843409F087CF80914801D8
:100520000E94140182CFA1E21A2EAA1BBB1BFD015F
:100530000DC0AA1FBB1FEE1FFF1FA217B307E407C2
:10054000F50720F0A21BB30BE40BF50B661F771F1A
:10055000881F991F1A9469F76095709580959095FA
:0E0560009B01AC01BD01CF010895F894FFCFBF
:10056E000000060126014A015D018801B801EE0175
:10057E000B024B02000001000200040008001000F4
:10058E00200040008000BE00A0003B00B900A50086
:10059E009D009F00B000BF00BD00B7008F000B0094
:0605AE00AB001F00170066
:00000001FF
