S00F000053657269616C322E7372656383
S11300000C9443000C9455000C9455000C9455002A
S11300100C9455000C9455000C9455000C94550008
S11300200C9455000C9455000C9455000C946E00DF
S11300300C9455000C9455000C9455000C945500E8
S11300400C9455000C9455000C9455000C945500D8
S11300500C9455000C9455000C9455000C945500C8
S11300600C9455000C94550005A84CCDB2D44EB94F
S11300703836A9020C50B9918688083CA6AAAA2A47
S1130080BE000000803F11241FBECFEFD8E0DEBFCA
S1130090CDBF21E0A0E0B1E001C01D92A134B207C0
S11300A0E1F70E94BF010C9488040C940000809135
S11300B0C0008823E4F78091C6009FEB980F963028
S11300C010F4875308959FE9980F963010F48755DC
S11300D0089580538A3008F080E008951F920F92AB
S11300E00FB60F9211248F93EF93FF93E0910001C9
S11300F0F0E0EF5FFE4F808187BD809100018F5F4C
S11301008093000180910001803410F0109200016E
S1130110FF91EF918F910F900FBE0F901F90189544
S113012080E18093C4001092C50088E18093C100EF
S113013086E08093C20008958FEF84B987B91AB816
S113014015B818B81BB808951F93CF93DF9310E028
S113015029C0C12FD0E0BE010D2E000C880B990BD5
S11301600E94DD022BED3FE049EC50E40E9469035C
S113017020E030E040E85CE30E9469030E94D6037B
S113018020E030E04FEF52E40E94690320E030E0C9
S11301904FEF52E40E9440020E94AC02CF5FDE4F58
S11301A068831F5F1034A8F2DF91CF911F910895E7
S11301B08AB180648AB984B5836884BD85B5816059
S11301C085BD17BC0895E1E8F0E0808188608083F4
S11301D080818360808360E074E284EF90E020E0BB
S11301E030E0A9010E94660421503109309389004E
S11301F020938800EFE6F0E0808182608083089598
S113020020E030E040E852E40E9469030E94AC021E
S1130210CB01A0E0B0E0880F991FAA1FBB1F880F75
S1130220991FAA1FBB1F880F991FAA1FBB1F880FE6
S1130230991FAA1FBB1F9C01AD01220F331F441F2E
S1130240551F220F331F441F551F60E074E284EFD3
S113025090E00E9466042150310930938900209374
S11302608800089562E570ED84E294E40E94000140
S11302702FE787E298E0215080409040E1F700C0EA
S1130280000062E570ED84E294E40E9400012FE72F
S113029087E298E0215080409040E1F700C00000E0
S11302A060E070E0CB010E9400012FE787E298E054
S11302B0215080409040E1F700C0000062E570EDFD
S11302C084E294E40E9400012FE787E298E0215041
S11302D080409040E1F700C0000060E070E0CB0196
S11302E00E94000160E170ED82E094E40E9400014C
S11302F02FE787E298E0215080409040E1F700C06A
S1130300000062E570ED84E294E40E9400012FEFA6
S11303108EE490E1215080409040E1F700C000005D
S113032060E070E0CB010E9400010895809527E011
S113033030E019C0482F50E0022E02C05595479571
S11303400A94E2F740FF04C098B1916098B903C0E1
S113035098B19E7F98B998B1926098B998B19D7FF1
S113036098B92150310933232CF788B1846088B9B6
S113037088B18B7F88B988B18E7F88B90895F89445
S11303800E9490000E949C000E94A4000E94D80039
S11303900E94E30078948091C0008823E4F7809160
S11303A0C600823499F40E945700C82F0E94570057
S11303B040E1C49F90011124822B85B98091C00033
S11303C085FFFCCF8EE28093C600E5CF8335B1F480
S11303D00E945700C82F0E94570050E1C59F90010A
S11303E01124A901482BCA010E9496018091C000E2
S11303F085FFFCCF81E28093C600CDCF803519F50F
S11304000E945700D82F0E945700C82F0E945700FF
S11304106D2F70E0762F662750E1C59F900111245F
S1130420622B732B682B072E000C880B990B0E94F0
S1130430DD020E9400018091C00085FFFCCF8CE7A3
S11304408093C600A8CF8D3491F48091C000882396
S1130450E4F78091C600813311F40E943201809147
S1130460C00085FFFCCF8CE78093C60094CF8091B9
S1130470C00085FFFCCF8FE38093C6008CCF50581B
S1130480BB27AA270E9457020C942F030E94210322
S113049038F00E94280320F039F49F3F19F426F421
S11304A00C941E030EF4E095E7FB0C941803E92F5B
S11304B00E94400358F3BA1762077307840795072D
S11304C020F079F4A6F50C9462030EF4E0950B2E5B
S11304D0BA2FA02D0B01B90190010C01CA01A00192
S11304E01124FF27591B99F0593F50F4503E68F1ED
S11304F01A16F040A22F232F342F4427585FF3CF2E
S1130500469537952795A795F0405395C9F77EF4FE
S11305101F16BA0B620B730B840BBAF09150A1F047
S1130520FF0FBB1F661F771F881FC2F70EC0BA0FCD
S1130530621F731F841F48F4879577956795B79555
S1130540F7959E3F08F0B0CF9395880F08F0992750
S1130550EE0F9795879508950E94480388F09F575A
S113056098F0B92F9927B751B0F0E1F0660F771FD3
S1130570881F991F1AF0BA95C9F714C0B13091F0C9
S11305800E946203B1E008950C946203672F782FF0
S11305908827B85F39F0B93FCCF38695779567958E
S11305A0B395D9F73EF490958095709561957F4FFA
S11305B08F4F9F4F0895E89409C097FB3EF49095A0
S11305C08095709561957F4F8F4F9F4F9923A9F028
S11305D0F92F96E9BB279395F695879577956795B7
S11305E0B795F111F8CFFAF4BB0F11F460FF1BC0FB
S11305F06F5F7F4F8F4F9F4F16C0882311F096E98E
S113060011C0772321F09EE8872F762F05C066233B
S113061071F096E8862F70E060E02AF09A95660FF4
S1130620771F881FDAF7880F9695879597F90895AD
S113063097F99F6780E870E060E008959FEF80EC91
S1130640089500240A941616170618060906089534
S113065000240A9412161306140605060895092E9A
S11306600394000C11F4882352F0BB0F40F4BF2B09
S113067011F460FF04C06F5F7F4F8F4F9F4F089549
S113068057FD9058440F551F59F05F3F71F047953F
S1130690880F97FB991F61F09F3F79F08795089524
S11306A0121613061406551FF2CF4695F1DF08C043
S11306B0161617061806991FF1CF86957105610560
S11306C008940895E894BB2766277727CB0197F908
S11306D008950E947C030C942F030E94210338F098
S11306E00E94280320F0952311F00C9418030C9415
S11306F01E0311240C9463030E94400370F3959F1E
S1130700C1F3950F50E0551F629FF001729FBB2704
S1130710F00DB11D639FAA27F00DB11DAA1F649FA0
S11307206627B00DA11D661F829F2227B00DA11D53
S1130730621F739FB00DA11D621F839FA00D611DD9
S1130740221F749F3327A00D611D231F849F600DFA
S1130750211D822F762F6A2F11249F5750409AF023
S1130760F1F088234AF0EE0FFF1FBB1F661F771FAF
S1130770881F91505040A9F79E3F510580F00C947A
S113078018030C9463035F3FE4F3983ED4F3869517
S113079077956795B795F795E7959F5FC1F7FE2B1A
S11307A0880F911D9695879597F908959F930E94B8
S11307B0E0030F9007FCEE5F0C9409040C941E03F5
S11307C00E944803D8F3E894E0E0BB279F57F0F079
S11307D02AED3FE049EC06C0EE0FBB0F661F771F02
S11307E0881F28F0B23A62077307840728F0B25AC8
S11307F0620B730B840BE3959A9572F7803830F48F
S11308009A95BB0F661F771F881FD2F790480C94E8
S11308101F04EF93E0FF07C0A2EA2AED3FE049EC92
S11308205FEB0E9457020E942F030F90039401FC78
S11308309058E8E6F0E00C942B049F3F31F091507F
S113084020F4879577956795B795880F911D9695B0
S1130850879597F908959F938F937F936F93FF9351
S1130860EF939B01AC010E946903EF91FF910E94F9
S11308703F042F913F914F915F910C946903DF9353
S1130880CF931F930F93FF92EF92DF927B018C0122
S1130890689406C0DA2EEF010E947C03FE01E894FE
S11308A0A5912591359145915591A6F3EF010E94AB
S11308B05702FE019701A801DA9469F7DF90EF90DF
S11308C0FF900F911F91CF91DF910895A1E21A2E0D
S11308D0AA1BBB1BFD010DC0AA1FBB1FEE1FFF1FE0
S11308E0A217B307E407F50720F0A21BB30BE40B30
S11308F0F50B661F771F881F991F1A9469F7609577
S11309007095809590959B01AC01BD01CF01089530
S1070910F894FFCF85
S9030000FC
