:100000000C9434000C943E000C943E000C943E0082
:100010000C943E000C943E000C943E000C943E0068
:100020000C943E000C943E000C943E000C943E0058
:100030000C943E000C943E000C943E000C943E0048
:100040000C943E000C943E000C943E000C943E0038
:100050000C943E000C943E000C943E000C943E0028
:100060000C943E000C943E0011241FBECFEFD8E04C
:10007000DEBFCDBF0E9480000C94EE000C94000007
:100080008091C0008823E4F78091C6009FEB980F11
:10009000963010F4875308959FE9980F963010F426
:1000A0008755089580538A3008F080E00895809540
:1000B00027E030E019C0482F50E0022E02C05595CD
:1000C00047950A94E2F740FF04C098B1916098B94F
:1000D00003C098B19E7F98B998B1926098B998B1D1
:1000E0009D7F98B92150310933232CF788B1846062
:1000F00088B988B18B7F88B988B18E7F88B9089517
:1001000080E18093C4001092C50088E18093C10013
:1001100086E08093C2008FEF84B987B98AB180648A
:100120008AB915B818B81BB817BC84B5806884BDE7
:1001300084B5836084BD85B5826085BD8091C00033
:100140008823E4F78091C600823499F40E9440002D
:10015000C82F0E94400040E1C49F90011124822BCF
:1001600085B98091C00085FFFCCF8EE28093C600E8
:10017000E5CF8335B1F40E944000C82F0E944000B3
:1001800050E1C59F90011124A901482BCA010E948A
:1001900057008091C00085FFFCCF81E28093C600AC
:1001A000CDCF803599F40E944000C82F0E944000B6
:1001B00050E1C59F90011124822B87BD8091C00022
:1001C00085FFFCCF8CE78093C600B8CF8091C0003C
:1001D00085FFFCCF8FE38093C600B0CFF894FFCFAC
:00000001FF
